{
  "contractName": "CourseMarketplace",
  "abi": [
    {
      "inputs": [],
      "stateMutability": "nonpayable",
      "type": "constructor"
    },
    {
      "inputs": [],
      "name": "CourseHasOwner",
      "type": "error"
    },
    {
      "inputs": [],
      "name": "CourseIsNotCreated",
      "type": "error"
    },
    {
      "inputs": [],
      "name": "InvalidState",
      "type": "error"
    },
    {
      "inputs": [],
      "name": "SenderIsNotCourseOwner",
      "type": "error"
    },
    {
      "stateMutability": "nonpayable",
      "type": "fallback"
    },
    {
      "inputs": [],
      "name": "isStopped",
      "outputs": [
        {
          "internalType": "bool",
          "name": "",
          "type": "bool"
        }
      ],
      "stateMutability": "view",
      "type": "function",
      "constant": true
    },
    {
      "stateMutability": "payable",
      "type": "receive",
      "payable": true
    },
    {
      "inputs": [],
      "name": "stopContract",
      "outputs": [],
      "stateMutability": "nonpayable",
      "type": "function"
    },
    {
      "inputs": [],
      "name": "resumeContract",
      "outputs": [],
      "stateMutability": "nonpayable",
      "type": "function"
    },
    {
      "inputs": [
        {
          "internalType": "bytes16",
          "name": "courseId",
          "type": "bytes16"
        },
        {
          "internalType": "bytes32",
          "name": "proof",
          "type": "bytes32"
        }
      ],
      "name": "purchaseCourse",
      "outputs": [],
      "stateMutability": "payable",
      "type": "function",
      "payable": true
    },
    {
      "inputs": [
        {
          "internalType": "bytes32",
          "name": "courseHash",
          "type": "bytes32"
        }
      ],
      "name": "repurchaseCourse",
      "outputs": [],
      "stateMutability": "payable",
      "type": "function",
      "payable": true
    },
    {
      "inputs": [
        {
          "internalType": "bytes32",
          "name": "courseHash",
          "type": "bytes32"
        }
      ],
      "name": "activateCourse",
      "outputs": [],
      "stateMutability": "nonpayable",
      "type": "function"
    },
    {
      "inputs": [
        {
          "internalType": "bytes32",
          "name": "courseHash",
          "type": "bytes32"
        }
      ],
      "name": "deactivateCourse",
      "outputs": [],
      "stateMutability": "nonpayable",
      "type": "function"
    },
    {
      "inputs": [
        {
          "internalType": "uint256",
          "name": "amount",
          "type": "uint256"
        }
      ],
      "name": "withdraw",
      "outputs": [],
      "stateMutability": "nonpayable",
      "type": "function"
    },
    {
      "inputs": [],
      "name": "emergencyWithdraw",
      "outputs": [],
      "stateMutability": "nonpayable",
      "type": "function"
    },
    {
      "inputs": [
        {
          "internalType": "address",
          "name": "newOwner",
          "type": "address"
        }
      ],
      "name": "tranferOwnership",
      "outputs": [],
      "stateMutability": "nonpayable",
      "type": "function"
    },
    {
      "inputs": [],
      "name": "getContractOwner",
      "outputs": [
        {
          "internalType": "address",
          "name": "",
          "type": "address"
        }
      ],
      "stateMutability": "view",
      "type": "function",
      "constant": true
    },
    {
      "inputs": [],
      "name": "getCourseCount",
      "outputs": [
        {
          "internalType": "uint256",
          "name": "",
          "type": "uint256"
        }
      ],
      "stateMutability": "view",
      "type": "function",
      "constant": true
    },
    {
      "inputs": [
        {
          "internalType": "uint256",
          "name": "index",
          "type": "uint256"
        }
      ],
      "name": "getCourseHash",
      "outputs": [
        {
          "internalType": "bytes32",
          "name": "",
          "type": "bytes32"
        }
      ],
      "stateMutability": "view",
      "type": "function",
      "constant": true
    },
    {
      "inputs": [
        {
          "internalType": "bytes32",
          "name": "courseHash",
          "type": "bytes32"
        }
      ],
      "name": "getCourseByHash",
      "outputs": [
        {
          "components": [
            {
              "internalType": "uint256",
              "name": "id",
              "type": "uint256"
            },
            {
              "internalType": "uint256",
              "name": "price",
              "type": "uint256"
            },
            {
              "internalType": "bytes32",
              "name": "proof",
              "type": "bytes32"
            },
            {
              "internalType": "address",
              "name": "owner",
              "type": "address"
            },
            {
              "internalType": "enum CourseMarketplace.State",
              "name": "state",
              "type": "uint8"
            }
          ],
          "internalType": "struct CourseMarketplace.Course",
          "name": "",
          "type": "tuple"
        }
      ],
      "stateMutability": "view",
      "type": "function",
      "constant": true
    },
    {
      "inputs": [],
      "name": "selfDestruct",
      "outputs": [],
      "stateMutability": "nonpayable",
      "type": "function"
    }
  ],
  "bytecode": "0x608060405260008060006101000a81548160ff02191690831515021790555034801561002a57600080fd5b5061003a3361003f60201b60201c565b610083565b80600460006101000a81548173ffffffffffffffffffffffffffffffffffffffff021916908373ffffffffffffffffffffffffffffffffffffffff16021790555050565b611bb0806100926000396000f3fe6080604052600436106100ec5760003560e01c80638158045a1161008a5780639cb8a26a116100595780639cb8a26a146102d4578063c4bc5da5146102eb578063d76821cb14610302578063db2e21bc1461031e576100f3565b80638158045a1461021a57806383fc58b414610257578063935d7e6d1461028057806396cfda06146102a9576100f3565b80633f683b6a116100c65780633f683b6a1461016b578063442890d5146101965780636136e1eb146101c157806362e4e6ac146101dd576100f3565b806312253a6c146101025780632e1a7d4d146101195780633926257214610142576100f3565b366100f357005b3480156100ff57600080fd5b50005b34801561010e57600080fd5b50610117610335565b005b34801561012557600080fd5b50610140600480360381019061013b9190611600565b6103e1565b005b34801561014e57600080fd5b50610169600480360381019061016491906115d7565b610586565b005b34801561017757600080fd5b50610180610796565b60405161018d919061181f565b60405180910390f35b3480156101a257600080fd5b506101ab6107a7565b6040516101b89190611804565b60405180910390f35b6101db60048036038101906101d691906115d7565b6107d1565b005b3480156101e957600080fd5b5061020460048036038101906101ff91906115d7565b610998565b60405161021191906118b5565b60405180910390f35b34801561022657600080fd5b50610241600480360381019061023c9190611600565b610ac0565b60405161024e919061183a565b60405180910390f35b34801561026357600080fd5b5061027e60048036038101906102799190611572565b610add565b005b34801561028c57600080fd5b506102a760048036038101906102a291906115d7565b610b79565b005b3480156102b557600080fd5b506102be610e68565b6040516102cb91906118d0565b60405180910390f35b3480156102e057600080fd5b506102e9610e72565b005b3480156102f757600080fd5b50610300610f54565b005b61031c6004803603810190610317919061159b565b611000565b005b34801561032a57600080fd5b50610333611205565b005b600460009054906101000a900473ffffffffffffffffffffffffffffffffffffffff1673ffffffffffffffffffffffffffffffffffffffff163373ffffffffffffffffffffffffffffffffffffffff16146103c5576040517f08c379a00000000000000000000000000000000000000000000000000000000081526004016103bc90611875565b60405180910390fd5b60016000806101000a81548160ff021916908315150217905550565b600460009054906101000a900473ffffffffffffffffffffffffffffffffffffffff1673ffffffffffffffffffffffffffffffffffffffff163373ffffffffffffffffffffffffffffffffffffffff1614610471576040517f08c379a000000000000000000000000000000000000000000000000000000000815260040161046890611875565b60405180910390fd5b804710156104b4576040517f08c379a00000000000000000000000000000000000000000000000000000000081526004016104ab90611855565b60405180910390fd5b6000600460009054906101000a900473ffffffffffffffffffffffffffffffffffffffff1673ffffffffffffffffffffffffffffffffffffffff16826040516104fc906117ef565b60006040518083038185875af1925050503d8060008114610539576040519150601f19603f3d011682016040523d82523d6000602084013e61053e565b606091505b5050905080610582576040517f08c379a000000000000000000000000000000000000000000000000000000000815260040161057990611895565b60405180910390fd5b5050565b600460009054906101000a900473ffffffffffffffffffffffffffffffffffffffff1673ffffffffffffffffffffffffffffffffffffffff163373ffffffffffffffffffffffffffffffffffffffff1614610616576040517f08c379a000000000000000000000000000000000000000000000000000000000815260040161060d90611875565b60405180910390fd5b60008054906101000a900460ff161561062e57600080fd5b6106378161137d565b61066d576040517f4db0c48300000000000000000000000000000000000000000000000000000000815260040160405180910390fd5b6000600160008381526020019081526020016000209050600060028111156106be577f4e487b7100000000000000000000000000000000000000000000000000000000600052602160045260246000fd5b8160030160149054906101000a900460ff166002811115610708577f4e487b7100000000000000000000000000000000000000000000000000000000600052602160045260246000fd5b1461073f576040517fbaf3f0f700000000000000000000000000000000000000000000000000000000815260040160405180910390fd5b60018160030160146101000a81548160ff0219169083600281111561078d577f4e487b7100000000000000000000000000000000000000000000000000000000600052602160045260246000fd5b02179055505050565b60008054906101000a900460ff1681565b6000600460009054906101000a900473ffffffffffffffffffffffffffffffffffffffff16905090565b60008054906101000a900460ff16156107e957600080fd5b6107f2816113ec565b610828576040517fcce31cc400000000000000000000000000000000000000000000000000000000815260040160405180910390fd5b6108318161137d565b610867576040517f4db0c48300000000000000000000000000000000000000000000000000000000815260040160405180910390fd5b60006001600083815260200190815260200160002090506002808111156108b7577f4e487b7100000000000000000000000000000000000000000000000000000000600052602160045260246000fd5b8160030160149054906101000a900460ff166002811115610901577f4e487b7100000000000000000000000000000000000000000000000000000000600052602160045260246000fd5b14610938576040517fbaf3f0f700000000000000000000000000000000000000000000000000000000815260040160405180910390fd5b60008160030160146101000a81548160ff02191690836002811115610986577f4e487b7100000000000000000000000000000000000000000000000000000000600052602160045260246000fd5b02179055503481600101819055505050565b6109a061149e565b600160008381526020019081526020016000206040518060a00160405290816000820154815260200160018201548152602001600282015481526020016003820160009054906101000a900473ffffffffffffffffffffffffffffffffffffffff1673ffffffffffffffffffffffffffffffffffffffff1673ffffffffffffffffffffffffffffffffffffffff1681526020016003820160149054906101000a900460ff166002811115610a7d577f4e487b7100000000000000000000000000000000000000000000000000000000600052602160045260246000fd5b6002811115610ab5577f4e487b7100000000000000000000000000000000000000000000000000000000600052602160045260246000fd5b815250509050919050565b600060026000838152602001908152602001600020549050919050565b600460009054906101000a900473ffffffffffffffffffffffffffffffffffffffff1673ffffffffffffffffffffffffffffffffffffffff163373ffffffffffffffffffffffffffffffffffffffff1614610b6d576040517f08c379a0000000000000000000000000000000000000000000000000000000008152600401610b6490611875565b60405180910390fd5b610b768161145a565b50565b600460009054906101000a900473ffffffffffffffffffffffffffffffffffffffff1673ffffffffffffffffffffffffffffffffffffffff163373ffffffffffffffffffffffffffffffffffffffff1614610c09576040517f08c379a0000000000000000000000000000000000000000000000000000000008152600401610c0090611875565b60405180910390fd5b60008054906101000a900460ff1615610c2157600080fd5b610c2a8161137d565b610c60576040517f4db0c48300000000000000000000000000000000000000000000000000000000815260040160405180910390fd5b600060016000838152602001908152602001600020905060006002811115610cb1577f4e487b7100000000000000000000000000000000000000000000000000000000600052602160045260246000fd5b8160030160149054906101000a900460ff166002811115610cfb577f4e487b7100000000000000000000000000000000000000000000000000000000600052602160045260246000fd5b14610d32576040517fbaf3f0f700000000000000000000000000000000000000000000000000000000815260040160405180910390fd5b60008160030160009054906101000a900473ffffffffffffffffffffffffffffffffffffffff1673ffffffffffffffffffffffffffffffffffffffff168260010154604051610d80906117ef565b60006040518083038185875af1925050503d8060008114610dbd576040519150601f19603f3d011682016040523d82523d6000602084013e610dc2565b606091505b5050905080610e06576040517f08c379a0000000000000000000000000000000000000000000000000000000008152600401610dfd90611895565b60405180910390fd5b60028260030160146101000a81548160ff02191690836002811115610e54577f4e487b7100000000000000000000000000000000000000000000000000000000600052602160045260246000fd5b021790555060008260010181905550505050565b6000600354905090565b600460009054906101000a900473ffffffffffffffffffffffffffffffffffffffff1673ffffffffffffffffffffffffffffffffffffffff163373ffffffffffffffffffffffffffffffffffffffff1614610f02576040517f08c379a0000000000000000000000000000000000000000000000000000000008152600401610ef990611875565b60405180910390fd5b60008054906101000a900460ff16610f1957600080fd5b600460009054906101000a900473ffffffffffffffffffffffffffffffffffffffff1673ffffffffffffffffffffffffffffffffffffffff16ff5b600460009054906101000a900473ffffffffffffffffffffffffffffffffffffffff1673ffffffffffffffffffffffffffffffffffffffff163373ffffffffffffffffffffffffffffffffffffffff1614610fe4576040517f08c379a0000000000000000000000000000000000000000000000000000000008152600401610fdb90611875565b60405180910390fd5b60008060006101000a81548160ff021916908315150217905550565b60008054906101000a900460ff161561101857600080fd5b6000823360405160200161102d9291906117c3565b60405160208183030381529060405280519060200120905061104e816113ec565b15611085576040517fb0fc2d9700000000000000000000000000000000000000000000000000000000815260040160405180910390fd5b60006003600081548092919061109a906119aa565b9190505590508160026000838152602001908152602001600020819055506040518060a001604052808281526020013481526020018481526020013373ffffffffffffffffffffffffffffffffffffffff1681526020016000600281111561112b577f4e487b7100000000000000000000000000000000000000000000000000000000600052602160045260246000fd5b8152506001600084815260200190815260200160002060008201518160000155602082015181600101556040820151816002015560608201518160030160006101000a81548173ffffffffffffffffffffffffffffffffffffffff021916908373ffffffffffffffffffffffffffffffffffffffff16021790555060808201518160030160146101000a81548160ff021916908360028111156111f7577f4e487b7100000000000000000000000000000000000000000000000000000000600052602160045260246000fd5b021790555090505050505050565b600460009054906101000a900473ffffffffffffffffffffffffffffffffffffffff1673ffffffffffffffffffffffffffffffffffffffff163373ffffffffffffffffffffffffffffffffffffffff1614611295576040517f08c379a000000000000000000000000000000000000000000000000000000000815260040161128c90611875565b60405180910390fd5b60008054906101000a900460ff166112ac57600080fd5b6000600460009054906101000a900473ffffffffffffffffffffffffffffffffffffffff1673ffffffffffffffffffffffffffffffffffffffff16476040516112f4906117ef565b60006040518083038185875af1925050503d8060008114611331576040519150601f19603f3d011682016040523d82523d6000602084013e611336565b606091505b505090508061137a576040517f08c379a000000000000000000000000000000000000000000000000000000000815260040161137190611895565b60405180910390fd5b50565b60008073ffffffffffffffffffffffffffffffffffffffff166001600084815260200190815260200160002060030160009054906101000a900473ffffffffffffffffffffffffffffffffffffffff1673ffffffffffffffffffffffffffffffffffffffff1614159050919050565b60003373ffffffffffffffffffffffffffffffffffffffff166001600084815260200190815260200160002060030160009054906101000a900473ffffffffffffffffffffffffffffffffffffffff1673ffffffffffffffffffffffffffffffffffffffff16149050919050565b80600460006101000a81548173ffffffffffffffffffffffffffffffffffffffff021916908373ffffffffffffffffffffffffffffffffffffffff16021790555050565b6040518060a00160405280600081526020016000815260200160008019168152602001600073ffffffffffffffffffffffffffffffffffffffff16815260200160006002811115611518577f4e487b7100000000000000000000000000000000000000000000000000000000600052602160045260246000fd5b81525090565b60008135905061152d81611b1e565b92915050565b60008135905061154281611b35565b92915050565b60008135905061155781611b4c565b92915050565b60008135905061156c81611b63565b92915050565b60006020828403121561158457600080fd5b60006115928482850161151e565b91505092915050565b600080604083850312156115ae57600080fd5b60006115bc85828601611533565b92505060206115cd85828601611548565b9150509250929050565b6000602082840312156115e957600080fd5b60006115f784828501611548565b91505092915050565b60006020828403121561161257600080fd5b60006116208482850161155d565b91505092915050565b61163281611907565b82525050565b61164181611907565b82525050565b61165861165382611907565b6119f3565b82525050565b61166781611919565b82525050565b61167e61167982611925565b611a05565b82525050565b61168d81611951565b82525050565b61169c81611951565b82525050565b6116ab81611998565b82525050565b60006116be600e836118f6565b91506116c982611a8c565b602082019050919050565b60006116e16015836118f6565b91506116ec82611ab5565b602082019050919050565b60006117046010836118f6565b915061170f82611ade565b602082019050919050565b60006117276000836118eb565b915061173282611b07565b600082019050919050565b60a08201600082015161175360008501826117a5565b50602082015161176660208501826117a5565b5060408201516117796040850182611684565b50606082015161178c6060850182611629565b50608082015161179f60808501826116a2565b50505050565b6117ae8161198e565b82525050565b6117bd8161198e565b82525050565b60006117cf828561166d565b6010820191506117df8284611647565b6014820191508190509392505050565b60006117fa8261171a565b9150819050919050565b60006020820190506118196000830184611638565b92915050565b6000602082019050611834600083018461165e565b92915050565b600060208201905061184f6000830184611693565b92915050565b6000602082019050818103600083015261186e816116b1565b9050919050565b6000602082019050818103600083015261188e816116d4565b9050919050565b600060208201905081810360008301526118ae816116f7565b9050919050565b600060a0820190506118ca600083018461173d565b92915050565b60006020820190506118e560008301846117b4565b92915050565b600081905092915050565b600082825260208201905092915050565b60006119128261196e565b9050919050565b60008115159050919050565b60007fffffffffffffffffffffffffffffffff0000000000000000000000000000000082169050919050565b6000819050919050565b600081905061196982611b0a565b919050565b600073ffffffffffffffffffffffffffffffffffffffff82169050919050565b6000819050919050565b60006119a38261195b565b9050919050565b60006119b58261198e565b91507fffffffffffffffffffffffffffffffffffffffffffffffffffffffffffffffff8214156119e8576119e7611a21565b5b600182019050919050565b60006119fe82611a0f565b9050919050565b6000819050919050565b6000611a1a82611a7f565b9050919050565b7f4e487b7100000000000000000000000000000000000000000000000000000000600052601160045260246000fd5b7f4e487b7100000000000000000000000000000000000000000000000000000000600052602160045260246000fd5b60008160601b9050919050565b7f496e76616c696420616d6f756e74000000000000000000000000000000000000600082015250565b7f596f7520617265206e6f7420746865206f776e65720000000000000000000000600082015250565b7f5472616e73666572206661696c65642100000000000000000000000000000000600082015250565b50565b60038110611b1b57611b1a611a50565b5b50565b611b2781611907565b8114611b3257600080fd5b50565b611b3e81611925565b8114611b4957600080fd5b50565b611b5581611951565b8114611b6057600080fd5b50565b611b6c8161198e565b8114611b7757600080fd5b5056fea264697066735822122015903ca8b39d9ef98dbee95d2861b5b0c486e25636f874e167d72c2a3041a0b464736f6c63430008040033",
  "immutableReferences": {},
  "source": "//SPDX-License-Identifier: MIT\npragma solidity 0.8.4;\n\ncontract CourseMarketplace {\n\n    enum State {\n        Purchased,\n        Activated,\n        Deactivated\n    }\n\n    struct Course {\n        uint id;  //32\n        uint price;  //32\n        bytes32 proof;  //32    \n        address owner;  //20\n        State state;  //1\n    }\n\n    bool public isStopped = false;\n\n    //mapping of courseHash to Course data\n    mapping(bytes32 => Course) private ownedCourses;\n\n    //mapping of courseID to courseHash\n    mapping(uint => bytes32) private ownedCourseHash;\n\n    //total number of all courses + id of the course \n    uint private totalOwnedCourses;\n\n    address payable private owner;\n\n    constructor() {\n        setContractOwner(msg.sender);\n    }\n\n    /// Course has invalid state!\n    error InvalidState();\n\n    /// Course is not created!\n    error CourseIsNotCreated();\n\n    /// Course has already a Owner!\n    error CourseHasOwner();\n\n    /// Sender is not course Owner!\n    error SenderIsNotCourseOwner();\n\n    modifier onylOwner() {\n        require(msg.sender == owner, \"You are not the owner\");\n        _;\n    }\n\n    modifier onlyWhenNotStopped() {\n        require(!isStopped);\n        _;\n    }\n\n    modifier onlyWhenStopped() {\n        require(isStopped);\n        _;\n    }\n\n    function stopContract() external onylOwner() {\n        isStopped = true;\n    }\n\n    function resumeContract() external onylOwner() {\n        isStopped = false;\n    }\n\n    function purchaseCourse (\n        bytes16 courseId,  // 0x00000000000000000000000000003130\n        bytes32 proof      // 0x0000000000000000000000000000313000000000000000000000000000003130\n    ) external payable onlyWhenNotStopped {\n        bytes32 courseHash = keccak256(abi.encodePacked(courseId, msg.sender));\n        if(hasCourseOwnership(courseHash)) {\n            revert CourseHasOwner();\n        }\n        uint id = totalOwnedCourses++;\n        ownedCourseHash[id] = courseHash;\n        ownedCourses[courseHash] = Course({\n            id : id,\n            price: msg.value,\n            proof: proof,\n            owner: msg.sender,\n            state: State.Purchased\n        });\n    }\n\n    function repurchaseCourse(bytes32 courseHash) external payable onlyWhenNotStopped {\n         \n        if (!hasCourseOwnership(courseHash)) {\n            revert SenderIsNotCourseOwner();\n        }\n\n        if (!isCourseCreated(courseHash)) {\n            revert CourseIsNotCreated();\n        }\n\n        Course storage course = ownedCourses[courseHash];\n\n        if (course.state != State.Deactivated) {\n            revert InvalidState();\n        }\n\n        course.state = State.Purchased;\n        course.price = msg.value;\n    }\n\n    function activateCourse (bytes32 courseHash) external onylOwner onlyWhenNotStopped{\n\n        if(!isCourseCreated(courseHash)) {\n            revert CourseIsNotCreated();\n        }\n\n        Course storage course = ownedCourses[courseHash];\n\n        if(course.state != State.Purchased) {\n            revert InvalidState();\n        }\n\n        course.state = State.Activated;\n    }\n\n    function deactivateCourse(bytes32 courseHash) external onylOwner onlyWhenNotStopped{\n\n        if(!isCourseCreated(courseHash)) {\n            revert CourseIsNotCreated();\n        }\n\n        Course storage course = ownedCourses[courseHash];\n\n        if(course.state != State.Purchased) {\n            revert InvalidState();\n        }\n\n        (bool success, ) = course.owner.call{value: course.price}(\"\");\n        require(success, \"Transfer failed!\");\n\n        course.state = State.Deactivated;\n        course.price = 0;\n    }\n\n    function withdraw(uint amount) external onylOwner {\n        require(address(this).balance >= amount, \"Invalid amount\");\n        (bool success, ) = owner.call{value: amount}(\"\");\n\n        require(success, \"Transfer failed!\");\n    }\n\n    function emergencyWithdraw() external onylOwner onlyWhenStopped {\n        (bool success, ) = owner.call{value: address(this).balance}(\"\");\n\n        require(success, \"Transfer failed!\");\n    }\n\n    function tranferOwnership(address newOwner) external onylOwner {\n        setContractOwner(newOwner);\n    }\n\n    function getContractOwner() public view returns(address) {\n        return owner;\n    }\n\n    function getCourseCount() external view returns(uint) {\n        return totalOwnedCourses;\n    }\n\n    function getCourseHash(uint index) external view returns(bytes32) {\n        return ownedCourseHash[index];\n    }\n\n    function getCourseByHash(bytes32 courseHash) external view returns(Course memory) {\n        return ownedCourses[courseHash];\n    }\n\n    function setContractOwner(address newOwner) private {\n        owner = payable(newOwner);\n    }\n\n    function isCourseCreated(bytes32 courseHash) private view returns(bool){\n        return ownedCourses[courseHash].owner != 0x0000000000000000000000000000000000000000;    \n    }\n\n    function hasCourseOwnership(bytes32 courseHash) private view returns(bool) {\n        return ownedCourses[courseHash].owner == msg.sender;\n    }\n\n    function selfDestruct() external onylOwner onlyWhenStopped {\n        selfdestruct(owner);\n    }\n\n    fallback() external {}\n\n    receive() external payable {}\n} ",
  "sourcePath": "/home/schizo/decentralized-marketplace/contracts/CourseMarketplace.sol",
  "compiler": {
    "name": "solc",
    "version": "0.8.4+commit.c7e474f2.Emscripten.clang"
  },
  "schemaVersion": "3.4.16",
  "updatedAt": "2023-12-27T11:20:56.004Z",
  "networkType": "ethereum",
  "devdoc": {
    "kind": "dev",
    "methods": {},
    "version": 1
  },
  "userdoc": {
    "errors": {
      "CourseHasOwner()": [
        {
          "notice": "Course has already a Owner!"
        }
      ],
      "CourseIsNotCreated()": [
        {
          "notice": "Course is not created!"
        }
      ],
      "InvalidState()": [
        {
          "notice": "Course has invalid state!"
        }
      ],
      "SenderIsNotCourseOwner()": [
        {
          "notice": "Sender is not course Owner!"
        }
      ]
    },
    "kind": "user",
    "methods": {},
    "version": 1
  }
}