{
  "contractName": "CourseMarketplace",
  "abi": [
    {
      "inputs": [],
      "stateMutability": "nonpayable",
      "type": "constructor"
    },
    {
      "inputs": [],
      "name": "CourseHasOwner",
      "type": "error"
    },
    {
      "inputs": [
        {
          "internalType": "bytes16",
          "name": "courseId",
          "type": "bytes16"
        },
        {
          "internalType": "bytes32",
          "name": "proof",
          "type": "bytes32"
        }
      ],
      "name": "purchaseCourse",
      "outputs": [],
      "stateMutability": "payable",
      "type": "function",
      "payable": true
    },
    {
      "inputs": [
        {
          "internalType": "address",
          "name": "newOwner",
          "type": "address"
        }
      ],
      "name": "tranferOwnership",
      "outputs": [],
      "stateMutability": "nonpayable",
      "type": "function"
    },
    {
      "inputs": [],
      "name": "getContractOwner",
      "outputs": [
        {
          "internalType": "address",
          "name": "",
          "type": "address"
        }
      ],
      "stateMutability": "view",
      "type": "function",
      "constant": true
    },
    {
      "inputs": [],
      "name": "getCourseCount",
      "outputs": [
        {
          "internalType": "uint256",
          "name": "",
          "type": "uint256"
        }
      ],
      "stateMutability": "view",
      "type": "function",
      "constant": true
    },
    {
      "inputs": [
        {
          "internalType": "uint256",
          "name": "index",
          "type": "uint256"
        }
      ],
      "name": "getCourseHash",
      "outputs": [
        {
          "internalType": "bytes32",
          "name": "",
          "type": "bytes32"
        }
      ],
      "stateMutability": "view",
      "type": "function",
      "constant": true
    },
    {
      "inputs": [
        {
          "internalType": "bytes32",
          "name": "courseHash",
          "type": "bytes32"
        }
      ],
      "name": "getCourseByHash",
      "outputs": [
        {
          "components": [
            {
              "internalType": "uint256",
              "name": "id",
              "type": "uint256"
            },
            {
              "internalType": "uint256",
              "name": "price",
              "type": "uint256"
            },
            {
              "internalType": "bytes32",
              "name": "proof",
              "type": "bytes32"
            },
            {
              "internalType": "address",
              "name": "owner",
              "type": "address"
            },
            {
              "internalType": "enum CourseMarketplace.State",
              "name": "state",
              "type": "uint8"
            }
          ],
          "internalType": "struct CourseMarketplace.Course",
          "name": "",
          "type": "tuple"
        }
      ],
      "stateMutability": "view",
      "type": "function",
      "constant": true
    }
  ],
  "bytecode": "0x608060405234801561001057600080fd5b506100203361002560201b60201c565b610069565b80600360006101000a81548173ffffffffffffffffffffffffffffffffffffffff021916908373ffffffffffffffffffffffffffffffffffffffff16021790555050565b610bde806100786000396000f3fe6080604052600436106100555760003560e01c8063442890d51461005a57806362e4e6ac146100855780638158045a146100c257806383fc58b4146100ff57806396cfda0614610128578063d76821cb14610153575b600080fd5b34801561006657600080fd5b5061006f61016f565b60405161007c91906108f9565b60405180910390f35b34801561009157600080fd5b506100ac60048036038101906100a79190610759565b610199565b6040516100b9919061094f565b60405180910390f35b3480156100ce57600080fd5b506100e960048036038101906100e49190610782565b6102c0565b6040516100f69190610914565b60405180910390f35b34801561010b57600080fd5b50610126600480360381019061012191906106f4565b6102dd565b005b34801561013457600080fd5b5061013d610379565b60405161014a919061096a565b60405180910390f35b61016d6004803603810190610168919061071d565b610383565b005b6000600360009054906101000a900473ffffffffffffffffffffffffffffffffffffffff16905090565b6101a1610620565b6000808381526020019081526020016000206040518060a00160405290816000820154815260200160018201548152602001600282015481526020016003820160009054906101000a900473ffffffffffffffffffffffffffffffffffffffff1673ffffffffffffffffffffffffffffffffffffffff1673ffffffffffffffffffffffffffffffffffffffff1681526020016003820160149054906101000a900460ff16600281111561027d577f4e487b7100000000000000000000000000000000000000000000000000000000600052602160045260246000fd5b60028111156102b5577f4e487b7100000000000000000000000000000000000000000000000000000000600052602160045260246000fd5b815250509050919050565b600060016000838152602001908152602001600020549050919050565b600360009054906101000a900473ffffffffffffffffffffffffffffffffffffffff1673ffffffffffffffffffffffffffffffffffffffff163373ffffffffffffffffffffffffffffffffffffffff161461036d576040517f08c379a00000000000000000000000000000000000000000000000000000000081526004016103649061092f565b60405180910390fd5b6103768161056f565b50565b6000600254905090565b600082336040516020016103989291906108cd565b6040516020818303038152906040528051906020012090506103b9816105b3565b156103f0576040517fb0fc2d9700000000000000000000000000000000000000000000000000000000815260040160405180910390fd5b60006002600081548092919061040590610a2d565b9190505590508160016000838152602001908152602001600020819055506040518060a001604052808281526020013481526020018481526020013373ffffffffffffffffffffffffffffffffffffffff16815260200160006002811115610496577f4e487b7100000000000000000000000000000000000000000000000000000000600052602160045260246000fd5b81525060008084815260200190815260200160002060008201518160000155602082015181600101556040820151816002015560608201518160030160006101000a81548173ffffffffffffffffffffffffffffffffffffffff021916908373ffffffffffffffffffffffffffffffffffffffff16021790555060808201518160030160146101000a81548160ff02191690836002811115610561577f4e487b7100000000000000000000000000000000000000000000000000000000600052602160045260246000fd5b021790555090505050505050565b80600360006101000a81548173ffffffffffffffffffffffffffffffffffffffff021916908373ffffffffffffffffffffffffffffffffffffffff16021790555050565b60003373ffffffffffffffffffffffffffffffffffffffff1660008084815260200190815260200160002060030160009054906101000a900473ffffffffffffffffffffffffffffffffffffffff1673ffffffffffffffffffffffffffffffffffffffff16149050919050565b6040518060a00160405280600081526020016000815260200160008019168152602001600073ffffffffffffffffffffffffffffffffffffffff1681526020016000600281111561069a577f4e487b7100000000000000000000000000000000000000000000000000000000600052602160045260246000fd5b81525090565b6000813590506106af81610b4c565b92915050565b6000813590506106c481610b63565b92915050565b6000813590506106d981610b7a565b92915050565b6000813590506106ee81610b91565b92915050565b60006020828403121561070657600080fd5b6000610714848285016106a0565b91505092915050565b6000806040838503121561073057600080fd5b600061073e858286016106b5565b925050602061074f858286016106ca565b9150509250929050565b60006020828403121561076b57600080fd5b6000610779848285016106ca565b91505092915050565b60006020828403121561079457600080fd5b60006107a2848285016106df565b91505092915050565b6107b481610996565b82525050565b6107c381610996565b82525050565b6107da6107d582610996565b610a76565b82525050565b6107f16107ec826109a8565b610a88565b82525050565b610800816109d4565b82525050565b61080f816109d4565b82525050565b61081e81610a1b565b82525050565b6000610831601583610985565b915061083c82610b0f565b602082019050919050565b60a08201600082015161085d60008501826108af565b50602082015161087060208501826108af565b50604082015161088360408501826107f7565b50606082015161089660608501826107ab565b5060808201516108a96080850182610815565b50505050565b6108b881610a11565b82525050565b6108c781610a11565b82525050565b60006108d982856107e0565b6010820191506108e982846107c9565b6014820191508190509392505050565b600060208201905061090e60008301846107ba565b92915050565b60006020820190506109296000830184610806565b92915050565b6000602082019050818103600083015261094881610824565b9050919050565b600060a0820190506109646000830184610847565b92915050565b600060208201905061097f60008301846108be565b92915050565b600082825260208201905092915050565b60006109a1826109f1565b9050919050565b60007fffffffffffffffffffffffffffffffff0000000000000000000000000000000082169050919050565b6000819050919050565b60008190506109ec82610b38565b919050565b600073ffffffffffffffffffffffffffffffffffffffff82169050919050565b6000819050919050565b6000610a26826109de565b9050919050565b6000610a3882610a11565b91507fffffffffffffffffffffffffffffffffffffffffffffffffffffffffffffffff821415610a6b57610a6a610aa4565b5b600182019050919050565b6000610a8182610a92565b9050919050565b6000819050919050565b6000610a9d82610b02565b9050919050565b7f4e487b7100000000000000000000000000000000000000000000000000000000600052601160045260246000fd5b7f4e487b7100000000000000000000000000000000000000000000000000000000600052602160045260246000fd5b60008160601b9050919050565b7f596f7520617265206e6f7420746865206f776e65720000000000000000000000600082015250565b60038110610b4957610b48610ad3565b5b50565b610b5581610996565b8114610b6057600080fd5b50565b610b6c816109a8565b8114610b7757600080fd5b50565b610b83816109d4565b8114610b8e57600080fd5b50565b610b9a81610a11565b8114610ba557600080fd5b5056fea26469706673582212200c12671c015f397d57653e1d60432673ebfad5e191a0e8ec121a5d7ab884a26864736f6c63430008040033",
  "immutableReferences": {},
  "source": "//SPDX-License-Identifier: MIT\npragma solidity 0.8.4;\n\ncontract CourseMarketplace {\n\n    enum State {\n        Purchased,\n        Activated,\n        Deactivated\n    }\n\n    struct Course {\n        uint id;  //32\n        uint price;  //32\n        bytes32 proof;  //32    \n        address owner;  //20\n        State state;  //1\n    }\n\n    //mapping of courseHash to Course data\n    mapping(bytes32 => Course) private ownedCourses;\n\n    //mapping of courseID to courseHash\n    mapping(uint => bytes32) private ownedCourseHash;\n\n    //total number of all courses + id of the course \n    uint private totalOwnedCourses;\n\n    address payable private owner;\n\n    constructor() {\n        setContractOwner(msg.sender);\n    }\n\n    /// Course has already a Owner!\n    error CourseHasOwner();\n\n    modifier onylOwner() {\n        require(msg.sender == owner, \"You are not the owner\");\n        _;\n    }\n\n    function purchaseCourse (\n        bytes16 courseId,  // 0x00000000000000000000000000003130\n        bytes32 proof      // 0x0000000000000000000000000000313000000000000000000000000000003130\n    ) external payable {\n        bytes32 courseHash = keccak256(abi.encodePacked(courseId, msg.sender));\n        if(hasCourseOwnership(courseHash)) {\n            revert CourseHasOwner();\n        }\n        uint id = totalOwnedCourses++;\n        ownedCourseHash[id] = courseHash;\n        ownedCourses[courseHash] = Course({\n            id : id,\n            price: msg.value,\n            proof: proof,\n            owner: msg.sender,\n            state: State.Purchased\n        });\n    }\n\n    function tranferOwnership(address newOwner) external onylOwner {\n        setContractOwner(newOwner);\n    }\n\n    function getContractOwner() public view returns(address) {\n        return owner;\n    }\n\n    function getCourseCount() external view returns(uint) {\n        return totalOwnedCourses;\n    }\n\n    function getCourseHash(uint index) external view returns(bytes32) {\n        return ownedCourseHash[index];\n    }\n\n    function getCourseByHash(bytes32 courseHash) external view returns(Course memory) {\n        return ownedCourses[courseHash];\n    }\n\n    function setContractOwner(address newOwner) private {\n        owner = payable(newOwner);\n    }\n\n    function hasCourseOwnership(bytes32 courseHash) private view returns(bool) {\n        return ownedCourses[courseHash].owner == msg.sender;\n    }\n} ",
  "sourcePath": "/home/schizo/decentralized-marketplace/contracts/CourseMarketplace.sol",
  "compiler": {
    "name": "solc",
    "version": "0.8.4+commit.c7e474f2.Emscripten.clang"
  },
  "schemaVersion": "3.4.16",
  "updatedAt": "2023-12-20T11:54:48.948Z",
  "networkType": "ethereum",
  "devdoc": {
    "kind": "dev",
    "methods": {},
    "version": 1
  },
  "userdoc": {
    "errors": {
      "CourseHasOwner()": [
        {
          "notice": "Course has already a Owner!"
        }
      ]
    },
    "kind": "user",
    "methods": {},
    "version": 1
  }
}