{
  "contractName": "CourseMarketplace",
  "abi": [
    {
      "inputs": [],
      "stateMutability": "nonpayable",
      "type": "constructor"
    },
    {
      "inputs": [],
      "name": "CourseHasOwner",
      "type": "error"
    },
    {
      "inputs": [],
      "name": "CourseIsNotCreated",
      "type": "error"
    },
    {
      "inputs": [],
      "name": "InvalidState",
      "type": "error"
    },
    {
      "inputs": [],
      "name": "SenderIsNotCourseOwner",
      "type": "error"
    },
    {
      "inputs": [
        {
          "internalType": "bytes16",
          "name": "courseId",
          "type": "bytes16"
        },
        {
          "internalType": "bytes32",
          "name": "proof",
          "type": "bytes32"
        }
      ],
      "name": "purchaseCourse",
      "outputs": [],
      "stateMutability": "payable",
      "type": "function",
      "payable": true
    },
    {
      "inputs": [
        {
          "internalType": "bytes32",
          "name": "courseHash",
          "type": "bytes32"
        }
      ],
      "name": "repurchaseCourse",
      "outputs": [],
      "stateMutability": "payable",
      "type": "function",
      "payable": true
    },
    {
      "inputs": [
        {
          "internalType": "bytes32",
          "name": "courseHash",
          "type": "bytes32"
        }
      ],
      "name": "activateCourse",
      "outputs": [],
      "stateMutability": "nonpayable",
      "type": "function"
    },
    {
      "inputs": [
        {
          "internalType": "bytes32",
          "name": "courseHash",
          "type": "bytes32"
        }
      ],
      "name": "deactivateCourse",
      "outputs": [],
      "stateMutability": "nonpayable",
      "type": "function"
    },
    {
      "inputs": [
        {
          "internalType": "address",
          "name": "newOwner",
          "type": "address"
        }
      ],
      "name": "tranferOwnership",
      "outputs": [],
      "stateMutability": "nonpayable",
      "type": "function"
    },
    {
      "inputs": [],
      "name": "getContractOwner",
      "outputs": [
        {
          "internalType": "address",
          "name": "",
          "type": "address"
        }
      ],
      "stateMutability": "view",
      "type": "function",
      "constant": true
    },
    {
      "inputs": [],
      "name": "getCourseCount",
      "outputs": [
        {
          "internalType": "uint256",
          "name": "",
          "type": "uint256"
        }
      ],
      "stateMutability": "view",
      "type": "function",
      "constant": true
    },
    {
      "inputs": [
        {
          "internalType": "uint256",
          "name": "index",
          "type": "uint256"
        }
      ],
      "name": "getCourseHash",
      "outputs": [
        {
          "internalType": "bytes32",
          "name": "",
          "type": "bytes32"
        }
      ],
      "stateMutability": "view",
      "type": "function",
      "constant": true
    },
    {
      "inputs": [
        {
          "internalType": "bytes32",
          "name": "courseHash",
          "type": "bytes32"
        }
      ],
      "name": "getCourseByHash",
      "outputs": [
        {
          "components": [
            {
              "internalType": "uint256",
              "name": "id",
              "type": "uint256"
            },
            {
              "internalType": "uint256",
              "name": "price",
              "type": "uint256"
            },
            {
              "internalType": "bytes32",
              "name": "proof",
              "type": "bytes32"
            },
            {
              "internalType": "address",
              "name": "owner",
              "type": "address"
            },
            {
              "internalType": "enum CourseMarketplace.State",
              "name": "state",
              "type": "uint8"
            }
          ],
          "internalType": "struct CourseMarketplace.Course",
          "name": "",
          "type": "tuple"
        }
      ],
      "stateMutability": "view",
      "type": "function",
      "constant": true
    }
  ],
  "bytecode": "0x608060405234801561001057600080fd5b506100203361002560201b60201c565b610069565b80600360006101000a81548173ffffffffffffffffffffffffffffffffffffffff021916908373ffffffffffffffffffffffffffffffffffffffff16021790555050565b611418806100786000396000f3fe6080604052600436106100865760003560e01c80638158045a116100595780638158045a1461013857806383fc58b414610175578063935d7e6d1461019e57806396cfda06146101c7578063d76821cb146101f257610086565b8063392625721461008b578063442890d5146100b45780636136e1eb146100df57806362e4e6ac146100fb575b600080fd5b34801561009757600080fd5b506100b260048036038101906100ad9190610ee1565b61020e565b005b3480156100c057600080fd5b506100c9610405565b6040516100d691906110dc565b60405180910390f35b6100f960048036038101906100f49190610ee1565b61042f565b005b34801561010757600080fd5b50610122600480360381019061011d9190610ee1565b6105dd565b60405161012f9190611152565b60405180910390f35b34801561014457600080fd5b5061015f600480360381019061015a9190610f0a565b610704565b60405161016c91906110f7565b60405180910390f35b34801561018157600080fd5b5061019c60048036038101906101979190610e7c565b610721565b005b3480156101aa57600080fd5b506101c560048036038101906101c09190610ee1565b6107bd565b005b3480156101d357600080fd5b506101dc610a93565b6040516101e9919061116d565b60405180910390f35b61020c60048036038101906102079190610ea5565b610a9d565b005b600360009054906101000a900473ffffffffffffffffffffffffffffffffffffffff1673ffffffffffffffffffffffffffffffffffffffff163373ffffffffffffffffffffffffffffffffffffffff161461029e576040517f08c379a000000000000000000000000000000000000000000000000000000000815260040161029590611112565b60405180910390fd5b6102a781610c89565b6102dd576040517f4db0c48300000000000000000000000000000000000000000000000000000000815260040160405180910390fd5b600080600083815260200190815260200160002090506000600281111561032d577f4e487b7100000000000000000000000000000000000000000000000000000000600052602160045260246000fd5b8160030160149054906101000a900460ff166002811115610377577f4e487b7100000000000000000000000000000000000000000000000000000000600052602160045260246000fd5b146103ae576040517fbaf3f0f700000000000000000000000000000000000000000000000000000000815260040160405180910390fd5b60018160030160146101000a81548160ff021916908360028111156103fc577f4e487b7100000000000000000000000000000000000000000000000000000000600052602160045260246000fd5b02179055505050565b6000600360009054906101000a900473ffffffffffffffffffffffffffffffffffffffff16905090565b61043881610cf7565b61046e576040517fcce31cc400000000000000000000000000000000000000000000000000000000815260040160405180910390fd5b61047781610c89565b6104ad576040517f4db0c48300000000000000000000000000000000000000000000000000000000815260040160405180910390fd5b600080600083815260200190815260200160002090506002808111156104fc577f4e487b7100000000000000000000000000000000000000000000000000000000600052602160045260246000fd5b8160030160149054906101000a900460ff166002811115610546577f4e487b7100000000000000000000000000000000000000000000000000000000600052602160045260246000fd5b1461057d576040517fbaf3f0f700000000000000000000000000000000000000000000000000000000815260040160405180910390fd5b60008160030160146101000a81548160ff021916908360028111156105cb577f4e487b7100000000000000000000000000000000000000000000000000000000600052602160045260246000fd5b02179055503481600101819055505050565b6105e5610da8565b6000808381526020019081526020016000206040518060a00160405290816000820154815260200160018201548152602001600282015481526020016003820160009054906101000a900473ffffffffffffffffffffffffffffffffffffffff1673ffffffffffffffffffffffffffffffffffffffff1673ffffffffffffffffffffffffffffffffffffffff1681526020016003820160149054906101000a900460ff1660028111156106c1577f4e487b7100000000000000000000000000000000000000000000000000000000600052602160045260246000fd5b60028111156106f9577f4e487b7100000000000000000000000000000000000000000000000000000000600052602160045260246000fd5b815250509050919050565b600060016000838152602001908152602001600020549050919050565b600360009054906101000a900473ffffffffffffffffffffffffffffffffffffffff1673ffffffffffffffffffffffffffffffffffffffff163373ffffffffffffffffffffffffffffffffffffffff16146107b1576040517f08c379a00000000000000000000000000000000000000000000000000000000081526004016107a890611112565b60405180910390fd5b6107ba81610d64565b50565b600360009054906101000a900473ffffffffffffffffffffffffffffffffffffffff1673ffffffffffffffffffffffffffffffffffffffff163373ffffffffffffffffffffffffffffffffffffffff161461084d576040517f08c379a000000000000000000000000000000000000000000000000000000000815260040161084490611112565b60405180910390fd5b61085681610c89565b61088c576040517f4db0c48300000000000000000000000000000000000000000000000000000000815260040160405180910390fd5b60008060008381526020019081526020016000209050600060028111156108dc577f4e487b7100000000000000000000000000000000000000000000000000000000600052602160045260246000fd5b8160030160149054906101000a900460ff166002811115610926577f4e487b7100000000000000000000000000000000000000000000000000000000600052602160045260246000fd5b1461095d576040517fbaf3f0f700000000000000000000000000000000000000000000000000000000815260040160405180910390fd5b60008160030160009054906101000a900473ffffffffffffffffffffffffffffffffffffffff1673ffffffffffffffffffffffffffffffffffffffff1682600101546040516109ab906110c7565b60006040518083038185875af1925050503d80600081146109e8576040519150601f19603f3d011682016040523d82523d6000602084013e6109ed565b606091505b5050905080610a31576040517f08c379a0000000000000000000000000000000000000000000000000000000008152600401610a2890611132565b60405180910390fd5b60028260030160146101000a81548160ff02191690836002811115610a7f577f4e487b7100000000000000000000000000000000000000000000000000000000600052602160045260246000fd5b021790555060008260010181905550505050565b6000600254905090565b60008233604051602001610ab292919061109b565b604051602081830303815290604052805190602001209050610ad381610cf7565b15610b0a576040517fb0fc2d9700000000000000000000000000000000000000000000000000000000815260040160405180910390fd5b600060026000815480929190610b1f9061123b565b9190505590508160016000838152602001908152602001600020819055506040518060a001604052808281526020013481526020018481526020013373ffffffffffffffffffffffffffffffffffffffff16815260200160006002811115610bb0577f4e487b7100000000000000000000000000000000000000000000000000000000600052602160045260246000fd5b81525060008084815260200190815260200160002060008201518160000155602082015181600101556040820151816002015560608201518160030160006101000a81548173ffffffffffffffffffffffffffffffffffffffff021916908373ffffffffffffffffffffffffffffffffffffffff16021790555060808201518160030160146101000a81548160ff02191690836002811115610c7b577f4e487b7100000000000000000000000000000000000000000000000000000000600052602160045260246000fd5b021790555090505050505050565b60008073ffffffffffffffffffffffffffffffffffffffff1660008084815260200190815260200160002060030160009054906101000a900473ffffffffffffffffffffffffffffffffffffffff1673ffffffffffffffffffffffffffffffffffffffff1614159050919050565b60003373ffffffffffffffffffffffffffffffffffffffff1660008084815260200190815260200160002060030160009054906101000a900473ffffffffffffffffffffffffffffffffffffffff1673ffffffffffffffffffffffffffffffffffffffff16149050919050565b80600360006101000a81548173ffffffffffffffffffffffffffffffffffffffff021916908373ffffffffffffffffffffffffffffffffffffffff16021790555050565b6040518060a00160405280600081526020016000815260200160008019168152602001600073ffffffffffffffffffffffffffffffffffffffff16815260200160006002811115610e22577f4e487b7100000000000000000000000000000000000000000000000000000000600052602160045260246000fd5b81525090565b600081359050610e3781611386565b92915050565b600081359050610e4c8161139d565b92915050565b600081359050610e61816113b4565b92915050565b600081359050610e76816113cb565b92915050565b600060208284031215610e8e57600080fd5b6000610e9c84828501610e28565b91505092915050565b60008060408385031215610eb857600080fd5b6000610ec685828601610e3d565b9250506020610ed785828601610e52565b9150509250929050565b600060208284031215610ef357600080fd5b6000610f0184828501610e52565b91505092915050565b600060208284031215610f1c57600080fd5b6000610f2a84828501610e67565b91505092915050565b610f3c816111a4565b82525050565b610f4b816111a4565b82525050565b610f62610f5d826111a4565b611284565b82525050565b610f79610f74826111b6565b611296565b82525050565b610f88816111e2565b82525050565b610f97816111e2565b82525050565b610fa681611229565b82525050565b6000610fb9601583611193565b9150610fc48261131d565b602082019050919050565b6000610fdc601083611193565b9150610fe782611346565b602082019050919050565b6000610fff600083611188565b915061100a8261136f565b600082019050919050565b60a08201600082015161102b600085018261107d565b50602082015161103e602085018261107d565b5060408201516110516040850182610f7f565b5060608201516110646060850182610f33565b5060808201516110776080850182610f9d565b50505050565b6110868161121f565b82525050565b6110958161121f565b82525050565b60006110a78285610f68565b6010820191506110b78284610f51565b6014820191508190509392505050565b60006110d282610ff2565b9150819050919050565b60006020820190506110f16000830184610f42565b92915050565b600060208201905061110c6000830184610f8e565b92915050565b6000602082019050818103600083015261112b81610fac565b9050919050565b6000602082019050818103600083015261114b81610fcf565b9050919050565b600060a0820190506111676000830184611015565b92915050565b6000602082019050611182600083018461108c565b92915050565b600081905092915050565b600082825260208201905092915050565b60006111af826111ff565b9050919050565b60007fffffffffffffffffffffffffffffffff0000000000000000000000000000000082169050919050565b6000819050919050565b60008190506111fa82611372565b919050565b600073ffffffffffffffffffffffffffffffffffffffff82169050919050565b6000819050919050565b6000611234826111ec565b9050919050565b60006112468261121f565b91507fffffffffffffffffffffffffffffffffffffffffffffffffffffffffffffffff821415611279576112786112b2565b5b600182019050919050565b600061128f826112a0565b9050919050565b6000819050919050565b60006112ab82611310565b9050919050565b7f4e487b7100000000000000000000000000000000000000000000000000000000600052601160045260246000fd5b7f4e487b7100000000000000000000000000000000000000000000000000000000600052602160045260246000fd5b60008160601b9050919050565b7f596f7520617265206e6f7420746865206f776e65720000000000000000000000600082015250565b7f5472616e73666572206661696c65642100000000000000000000000000000000600082015250565b50565b60038110611383576113826112e1565b5b50565b61138f816111a4565b811461139a57600080fd5b50565b6113a6816111b6565b81146113b157600080fd5b50565b6113bd816111e2565b81146113c857600080fd5b50565b6113d48161121f565b81146113df57600080fd5b5056fea2646970667358221220b826957bd04b53b59c30e25692d50008853c29fa923cf943c2f9d55fe6faedbf64736f6c63430008040033",
  "immutableReferences": {},
  "source": "//SPDX-License-Identifier: MIT\npragma solidity 0.8.4;\n\ncontract CourseMarketplace {\n\n    enum State {\n        Purchased,\n        Activated,\n        Deactivated\n    }\n\n    struct Course {\n        uint id;  //32\n        uint price;  //32\n        bytes32 proof;  //32    \n        address owner;  //20\n        State state;  //1\n    }\n\n    //mapping of courseHash to Course data\n    mapping(bytes32 => Course) private ownedCourses;\n\n    //mapping of courseID to courseHash\n    mapping(uint => bytes32) private ownedCourseHash;\n\n    //total number of all courses + id of the course \n    uint private totalOwnedCourses;\n\n    address payable private owner;\n\n    constructor() {\n        setContractOwner(msg.sender);\n    }\n\n    /// Course has invalid state!\n    error InvalidState();\n\n    /// Course is not created!\n    error CourseIsNotCreated();\n\n    /// Course has already a Owner!\n    error CourseHasOwner();\n\n    /// Sender is not course Owner!\n    error SenderIsNotCourseOwner();\n\n    modifier onylOwner() {\n        require(msg.sender == owner, \"You are not the owner\");\n        _;\n    }\n\n    function purchaseCourse (\n        bytes16 courseId,  // 0x00000000000000000000000000003130\n        bytes32 proof      // 0x0000000000000000000000000000313000000000000000000000000000003130\n    ) external payable {\n        bytes32 courseHash = keccak256(abi.encodePacked(courseId, msg.sender));\n        if(hasCourseOwnership(courseHash)) {\n            revert CourseHasOwner();\n        }\n        uint id = totalOwnedCourses++;\n        ownedCourseHash[id] = courseHash;\n        ownedCourses[courseHash] = Course({\n            id : id,\n            price: msg.value,\n            proof: proof,\n            owner: msg.sender,\n            state: State.Purchased\n        });\n    }\n\n    function repurchaseCourse(bytes32 courseHash) external payable {\n         \n        if (!hasCourseOwnership(courseHash)) {\n            revert SenderIsNotCourseOwner();\n        }\n\n        if (!isCourseCreated(courseHash)) {\n            revert CourseIsNotCreated();\n        }\n\n        Course storage course = ownedCourses[courseHash];\n\n        if (course.state != State.Deactivated) {\n            revert InvalidState();\n        }\n\n        course.state = State.Purchased;\n        course.price = msg.value;\n    }\n\n    function activateCourse (bytes32 courseHash) external onylOwner {\n\n        if(!isCourseCreated(courseHash)) {\n            revert CourseIsNotCreated();\n        }\n\n        Course storage course = ownedCourses[courseHash];\n\n        if(course.state != State.Purchased) {\n            revert InvalidState();\n        }\n\n        course.state = State.Activated;\n    }\n\n    function deactivateCourse(bytes32 courseHash) external onylOwner {\n\n        if(!isCourseCreated(courseHash)) {\n            revert CourseIsNotCreated();\n        }\n\n        Course storage course = ownedCourses[courseHash];\n\n        if(course.state != State.Purchased) {\n            revert InvalidState();\n        }\n\n        (bool success, ) = course.owner.call{value: course.price}(\"\");\n        require(success, \"Transfer failed!\");\n\n        course.state = State.Deactivated;\n        course.price = 0;\n    }\n\n    function tranferOwnership(address newOwner) external onylOwner {\n        setContractOwner(newOwner);\n    }\n\n    function getContractOwner() public view returns(address) {\n        return owner;\n    }\n\n    function getCourseCount() external view returns(uint) {\n        return totalOwnedCourses;\n    }\n\n    function getCourseHash(uint index) external view returns(bytes32) {\n        return ownedCourseHash[index];\n    }\n\n    function getCourseByHash(bytes32 courseHash) external view returns(Course memory) {\n        return ownedCourses[courseHash];\n    }\n\n    function setContractOwner(address newOwner) private {\n        owner = payable(newOwner);\n    }\n\n    function isCourseCreated(bytes32 courseHash) private view returns(bool){\n        return ownedCourses[courseHash].owner != 0x0000000000000000000000000000000000000000;    \n    }\n\n    function hasCourseOwnership(bytes32 courseHash) private view returns(bool) {\n        return ownedCourses[courseHash].owner == msg.sender;\n    }\n} ",
  "sourcePath": "/home/schizo/decentralized-marketplace/contracts/CourseMarketplace.sol",
  "compiler": {
    "name": "solc",
    "version": "0.8.4+commit.c7e474f2.Emscripten.clang"
  },
  "schemaVersion": "3.4.16",
  "updatedAt": "2023-12-24T14:57:06.240Z",
  "networkType": "ethereum",
  "devdoc": {
    "kind": "dev",
    "methods": {},
    "version": 1
  },
  "userdoc": {
    "errors": {
      "CourseHasOwner()": [
        {
          "notice": "Course has already a Owner!"
        }
      ],
      "CourseIsNotCreated()": [
        {
          "notice": "Course is not created!"
        }
      ],
      "InvalidState()": [
        {
          "notice": "Course has invalid state!"
        }
      ],
      "SenderIsNotCourseOwner()": [
        {
          "notice": "Sender is not course Owner!"
        }
      ]
    },
    "kind": "user",
    "methods": {},
    "version": 1
  }
}